:100000000C943D000C944F000C944F000C944F0046
:100010000C944F000C944F000C944F000C944F0024
:100020000C944F000C944F000C944F000C944F0014
:100030000C944F000C944F000C9456020C944F00FB
:100040000C944F000C944F000C9405010C944F003D
:100050000C944F000C944F000C944F000C944F00E4
:100060000C944F000C944F0024022A0233023702F2
:100070003B023F02430247024D0211241FBECFEF55
:10008000D8E0DEBFCDBF25E0A0E0B1E001C01D9209
:10009000A931B207E1F70E9484020C9461040C9428
:1000A00000000E945B000E9499000E94C1010E9412
:1000B000590178940895E1E6F0E080E8808382E0D9
:1000C00080830895E0EBF0E08081806A8083808106
:1000D0008B6080831092B3001092B400E1EBF0E0EB
:1000E000808183608083089584B5806884BD84B5F1
:1000F000826084BD84E187BD85B5836085BDEEE601
:10010000F0E08081826080830895E2ECF0E08081FD
:10011000866080831092C50089E18093C40088E9DD
:100120008093C1000895249A2C9A0895259A2D98B9
:1001300008950E9485000C9493002C984AE84A95F3
:10014000F1F700C028E030E091E0482F492311F09A
:100150002C9A01C02C984AE84A95F1F700C0990FF3
:100160002150310991F72C9A8AE88A95F1F700C05D
:10017000089530910F0520911005321306C08AEAC8
:100180000E949D0081E090E00895E0910F05F0E06D
:10019000E15FFE4F2081FC0120838091000190915E
:1001A00001010197909301018093000180910F0557
:1001B00090E0019680930F0580E090E00895809193
:1001C000100590E0019620910F05281306C08FEFCF
:1001D0000E949D0082E090E00895E0911005F0E01B
:1001E0009091C600E15FFE4F908320910001309115
:1001F00001012F5F3F4F33703093010120930001C5
:100200008093100580E090E008951F920F920FB642
:100210000F9211242F933F934F935F936F937F938C
:100220008F939F93AF93BF93EF93FF9381E080935E
:1002300011050E94DF00892B21F00E940F020E940D
:10024000DF0010921105FF91EF91BF91AF919F9147
:100250008F917F916F915F914F913F912F910F906F
:100260000FBE0F901F90189510920E012998289894
:100270005C985A982FE78AE196E0215080409040A0
:10028000E1F700C00000089520E030E048EC52E4BF
:100290000E94B50220E030E04AE753E40E94A70341
:1002A0000E9414040E9427036093B3006093B4007B
:1002B000089584B18B6084B98AB18C618AB90E9437
:1002C00034010C946200CF93C62F91E090930E01FD
:1002D000811105C0299828985C9A5A9809C08130E4
:1002E00029F4299A28985A985C9802C00E943401EF
:1002F00060E070E088E492E40E944401C11108C00B
:100300002FE38DE093E0215080409040E1F713C04F
:10031000C13041F42FE78AE196E0215080409040BF
:10032000E1F709C0C23049F42FEF84E39CE021508B
:1003300080409040E1F700C00000CF910C94340160
:10034000CF92DF92EF92FF926A017B0191E090934E
:100350000E01823029F42998289A5C985A9A09C08B
:10036000833029F4299A28985C9A5A9802C00E94EE
:100370003401C701B601FF90EF90DF90CF900C944D
:1003800044010E9474000C94960070910501409104
:100390000601609108015091070130910A012091F6
:1003A000090190910B0180910C01470F460F450FF9
:1003B000430F420F490F480F4093120580910A01E5
:1003C0002091090130E0280F311D3093150520934D
:1003D0001405509108018091070190E0850F911D4F
:1003E000909317058093160550910D01451312C087
:1003F000253131057CF022E020930B0181329105FB
:100400004CF0909303018093020180E280930401F9
:100410002D9808958FEF809304012D9A089588E117
:1004200095E00E94B900892B09F03FC0E0911305C7
:100430008E2F90E089309105C0F5FC01EC5CFF4FF8
:10044000809118050C94AF02893579F580930501E8
:1004500081E020C0893521F48093060182E01AC032
:100460001092130508958093070183E013C08093D1
:10047000080184E00FC08093090185E00BC08093E0
:100480000A0186E007C080930B0187E003C08093D8
:100490000C0188E080931305089580930D010E945C
:1004A000C5011092130510920D0108951F920F922D
:1004B0000FB60F9211242F933F934F935F936F9337
:1004C0007F938F939F93AF93BF93EF93FF9380910D
:1004D0001105813041F08091000190910101C39795
:1004E00010F00E940F02FF91EF91BF91AF919F9189
:1004F0008F917F916F915F914F913F912F910F90CD
:100500000FBE0F901F9018950E9451002FEF89E6A3
:1005100098E1215080409040E1F700C000009091A8
:10052000040180910E01903281F4209102013091FA
:1005300003012D32310548F4813039F40E94340131
:1005400060E081E00E946301EACF8111E8CF40E0E2
:1005500050E060EF71E482E00E94A001E0CFEE0F76
:10056000FF1F0590F491E02D09940E94C9020C949C
:100570006D030E94660358F00E945F0340F029F467
:100580005F3F29F00C94560351110C94A1030C9475
:100590005C030E947E0368F39923B1F3552391F322
:1005A000951B550BBB27AA2762177307840738F0E2
:1005B0009F5F5F4F220F331F441FAA1FA9F335D03F
:1005C0000E2E3AF0E0E832D091505040E695001CF3
:1005D000CAF72BD0FE2F29D0660F771F881FBB1FAD
:1005E000261737074807AB07B0E809F0BB0B802D8B
:1005F000BF01FF2793585F4F3AF09E3F510578F0B7
:100600000C9456030C94A1035F3FE4F3983ED4F39B
:10061000869577956795B795F7959F5FC9F7880F8A
:10062000911D9695879597F90895E1E0660F771FDC
:10063000881FBB1F621773078407BA0720F0621B6D
:10064000730B840BBA0BEE1F88F7E09508950E9498
:10065000860388F09F5798F0B92F9927B751B0F0CB
:10066000E1F0660F771F881F991F1AF0BA95C9F736
:1006700014C0B13091F00E94A003B1E008950C9431
:10068000A003672F782F8827B85F39F0B93FCCF3E4
:10069000869577956795B395D9F73EF490958095B3
:1006A000709561957F4F8F4F9F4F089597F99F6782
:1006B00080E870E060E008959FEF80EC08950024EA
:1006C0000A941616170618060906089500240A94B7
:1006D00012161306140605060895092E0394000C3D
:1006E00011F4882352F0BB0F40F4BF2B11F460FFCC
:1006F00004C06F5F7F4F8F4F9F4F089557FD9058F5
:10070000440F551F59F05F3F71F04795880F97FBD5
:10071000991F61F09F3F79F087950895121613068F
:100720001406551FF2CF4695F1DF08C016161706BE
:100730001806991FF1CF86957105610508940895F3
:10074000E894BB2766277727CB0197F908950E9485
:10075000BA030C946D030E945F0338F00E94660395
:1007600020F0952311F00C9456030C945C03112493
:100770000C94A1030E947E0370F3959FC1F3950F23
:1007800050E0551F629FF001729FBB27F00DB11D15
:10079000639FAA27F00DB11DAA1F649F6627B00DA5
:1007A000A11D661F829F2227B00DA11D621F739F8E
:1007B000B00DA11D621F839FA00D611D221F749F9C
:1007C0003327A00D611D231F849F600D211D822FE3
:1007D000762F6A2F11249F5750409AF0F1F088230A
:1007E0004AF0EE0FFF1FBB1F661F771F881F915037
:1007F0005040A9F79E3F510580F00C9456030C948D
:10080000A1035F3FE4F3983ED4F38695779567950F
:10081000B795F795E7959F5FC1F7FE2B880F911D60
:100820009695879597F908950E948603E8F09E377C
:10083000E8F09639B8F49E3848F4672F782F882767
:10084000985FF9CF86957795679593959539D0F30D
:10085000B62FB1706B0F711D811D20F487957795B0
:10086000679593950C9438040C9453040C94A1034D
:10087000882371F4772321F09850872B762F07C0B7
:10088000662311F499270DC09051862B70E060E02B
:100890002AF09A95660F771F881FDAF7880F9695CA
:1008A000879597F908959F3F31F0915020F48795EF
:1008B00077956795B795880F911D9695879597F9C8
:0608C0000895F894FFCF3B
:00000001FF
