:100000000C9434000C9451000C9451000C94510049
:100010000C9451000C9451000C9451000C9451001C
:100020000C9451000C9451000C9451000C9451000C
:100030000C9451000C9451000C9451000C945100FC
:100040000C9451000C9451000C9451000C945100EC
:100050000C9451000C9451000C9451000C945100DC
:100060000C9451000C94510011241FBECFEFD8E026
:10007000DEBFCDBF11E0A0E0B1E0E2E0F3E002C0FE
:1000800005900D92A034B107D9F721E0A0E4B1E0CA
:1000900001C01D92AA34B207E1F70E9462010C94DC
:1000A0007F010C9400000E948B00259A2D980895E2
:1000B000299828985C985A980895299A28985C9AC3
:1000C0005A9808952998289A5C985A9A08958823EE
:1000D00039F0813051F4299A28985A985C980895FB
:1000E000299828985C9A5A9808950C945800813061
:1000F00039F020F0823051F48AEF03C086E901C064
:100100008CEB8093B3008093B40008951092B300F9
:100110001092B400089584B18B6084B98AB18C6167
:100120008AB90E9458000C941701809143012091D4
:10013000440130E0280F311D80914501280F311D09
:1001400080914601280F311D80914701280F311DF4
:1001500080914801280F311D4091490150E081E014
:1001600090E02417350711F080E090E008950E9498
:100170005401893509F049C00E945401893509F0BC
:1001800044C00E945401809343010E945401809313
:1001900044010E945401809345010E9454018093C0
:1001A00046010E945401809347010E9454018093AC
:1001B00048010E945401809349010E949500892BB7
:1001C00021F12091440130E0322F22278091430118
:1001D000280F311D8091460190E0982F882740918B
:1001E0004501840F911D2F3F4FEF340721F04497B5
:1001F0008D3B974018F010924201089530934101D1
:100200002093400181E0809342010895CF93DF93D2
:100210000E942901CDE2D1E089910E945B0181E039
:10022000C533D807C9F7DF91CF9108950895E0EB62
:10023000F0E08081806A808380818B60808310926F
:10024000B3001092B400E1EBF0E080818260808323
:100250000895CF93DF93A1ECB0E08C91877E8C93CF
:10026000E2ECF0E080818E7F808380818F738083D9
:1002700080818F7C8083C0ECD0E08881826088831D
:100280008CE08093C4001092C5008C9188618C939F
:100290008081877F808380818660808380818B7F5F
:1002A0008083DF91CF9108958091C00087FFFCCFBC
:1002B0008091C60008959091C00095FFFCCF809377
:1002C000C60008950E94530081E00E9477000E94BA
:1002D0005D002FE784E89EE1215080409040E1F7E7
:1002E00000C0000080E00E9467002FE784E89EE1E4
:1002F000215080409040E1F700C00000E8CFF89422
:02030000FFCF2D
:1003020042570200000001020042570200000001B1
:100312000600425702000A0000070042570200008E
:1003220000010A0042570200000007110042570272
:1003320000000000080042570200FFFFFFFF00001C
:00000001FF
