:100000000C943D000C944F000C944F000C944F0046
:100010000C944F000C944F000C944F000C944F0024
:100020000C944F000C944F000C944F000C94020160
:100030000C944F000C944F000C94CF000C944F0084
:100040000C944F000C944F000C94A0000C944F00A3
:100050000C944F000C944F000C944F000C944F00E4
:100060000C944F000C944F00B502BB02C402C802AE
:10007000CC02D002D402D802DE0211241FBECFEF80
:10008000D8E0DEBFCDBF25E0A0E0B1E001C01D9209
:10009000AB31B207E1F70E94E7020C94A6040C947E
:1000A000000080910501803261F4809103019091FC
:1000B00004018D9730F480910F01813011F40C947C
:1000C000F201809105018F3F21F480910F01813071
:1000D000B1F3809105018F3F39F480910F018111B7
:1000E00003C081E00C941A0280910501803251F422
:1000F00080910301909104018D9720F480910F016C
:10010000882379F380910501803289F4809103017D
:10011000909104018E9758F080910F01811107C0D2
:1001200040E050E068E472E482E00C94300208950C
:100130000E942E010E9489010E9452020C940E021C
:100140001F920F920FB60F9211242F933F934F934C
:100150005F936F937F938F939F93AF93BF93EF932F
:10016000FF9381E0809313050E94CC01892B21F03D
:100170000E94A0020E94CC0110921305FF91EF9102
:10018000BF91AF919F918F917F916F915F914F91AF
:100190003F912F910F900FBE0F901F9018951F92B7
:1001A0000F920FB60F9211242F933F934F935F93AB
:1001B0006F937F938F939F93AF93BF93EF93FF932F
:1001C00081E08093020180911305813041F080919C
:1001D000000190910101C39710F00E94A0021092BB
:1001E0000201FF91EF91BF91AF919F918F917F910C
:1001F0006F915F914F913F912F910F900FBE0F9094
:100200001F9018951F920F920FB60F9211242F93E3
:100210003F934F935F936F937F938F939F93AF938E
:10022000BF93EF93FF9380910201813031F0809171
:100230001305813011F00E945100FF91EF91BF91A1
:10024000AF919F918F917F916F915F914F913F916E
:100250002F910F900FBE0F901F901895E1E6F0E0E0
:1002600080E8808382E080830895E0EBF0E0808185
:10027000806A808380818B6080831092B3001092AB
:10028000B400E1EBF0E0808183608083089584B561
:10029000806884BD84B5826084BD84E187BD85B5F6
:1002A000836085BDEEE6F0E0808182608083089502
:1002B000E0E8F0E0808180688083E1E8F0E0808120
:1002C00088608083A8E8B0E08D919C911197816A45
:1002D000976011969C938E93808185608083EFE672
:1002E000F0E08081826080830895E2ECF0E080811C
:1002F000866080831092C50089E18093C40088E9FC
:100300008093C1000895249A2C9A0895259A2D98D7
:1003100008950E9475010C9483012C9844E84A9535
:10032000F1F728E030E091E0482F492311F02C9AB2
:1003300001C02C9844E84A95F1F7990F21503109F2
:1003400099F72C9A84E88A95F1F708953091110570
:1003500020911205321306C08AEA0E948D0181E0C5
:1003600090E00895E0911105F0E0EF5EFE4F2081EE
:10037000FC012083809100019091010101979093ED
:100380000101809300018091110590E00196809316
:10039000110580E090E008958091120590E00196AB
:1003A00020911105281306C08FEF0E948D0182E075
:1003B00090E00895E0911205F0E09091C600EF5EA4
:1003C000FE4F908320910001309101012F5F3F4F3C
:1003D000337030930101209300018093120580E077
:1003E00090E0089510920F012A9828985C985A98E6
:1003F000089520E030E048EC52E40E94FA0220E048
:1004000030E04AE753E40E94EC030E9459040E9442
:100410006C036093B3006093B40008950E94580188
:1004200084B18D6084B98AB18C618AB90E94F2016D
:100430000C943501813029F45C985A9A2A98289AAC
:1004400009C0811105C05C9A5A982A9A289802C05E
:100450000E94F20160E070E080EF91E40C94F901F9
:10046000CF92DF92EF92FF926A017B01823029F4F2
:100470002A9A28985C985A9A09C0833029F42A98B5
:10048000289A5C9A5A9802C00E94F201C701B601EC
:100490000E94F90181E080930F01FF90EF90DF90BF
:1004A000CF9008950E9447010C9486017091060137
:1004B00040910701609109015091080130910B01B1
:1004C00020910A0190910C0180910D01470F460F78
:1004D000450F430F420F490F480F40931405809179
:1004E0000B0120910A0130E0280F311D30931705D0
:1004F00020931605509109018091080190E0850F25
:10050000911D909319058093180550910E01451384
:1005100012C0253131057CF022E020930C0181329C
:1005200091054CF0909304018093030180E2809345
:1005300005012D9808958FEF809305012D9A089558
:100540008AE195E00E94A601892B09F03FC0E09165
:1005500015058E2F90E089309105C0F5FC01EC5C0B
:10056000FF4F80911A050C94F402893579F5809338
:10057000060181E020C0893521F48093070182E0E3
:100580001AC01092150508958093080183E013C0E6
:100590008093090184E00FC080930A0185E00BC0BD
:1005A00080930B0186E007C080930C0187E003C0B5
:1005B00080930D0188E080931505089580930E01C6
:1005C0000E9456021092150510920E0108950E9485
:1005D00098002FEF89E698E1215080409040E1F7A4
:1005E00000C000007894FFCFEE0FFF1F0590F4913C
:1005F000E02D09940E940E030C94B2030E94AB03F9
:1006000058F00E94A40340F029F45F3F29F00C94B5
:100610009B0351110C94E6030C94A1030E94C303A5
:1006200068F39923B1F3552391F3951B550BBB2721
:10063000AA2762177307840738F09F5F5F4F220F66
:10064000331F441FAA1FA9F335D00E2E3AF0E0E85D
:1006500032D091505040E695001CCAF72BD0FE2FA7
:1006600029D0660F771F881FBB1F2617370748073B
:10067000AB07B0E809F0BB0B802DBF01FF279358F3
:100680005F4F3AF09E3F510578F00C949B030C9419
:10069000E6035F3FE4F3983ED4F38695779567953C
:1006A000B795F7959F5FC9F7880F911D9695879528
:1006B00097F90895E1E0660F771F881FBB1F621747
:1006C00073078407BA0720F0621B730B840BBA0B05
:1006D000EE1F88F7E09508950E94CB0388F09F579E
:1006E00098F0B92F9927B751B0F0E1F0660F771F56
:1006F000881F991F1AF0BA95C9F714C0B13091F04C
:100700000E94E503B1E008950C94E503672F782F6C
:100710008827B85F39F0B93FCCF386957795679510
:10072000B395D9F73EF490958095709561957F4F7C
:100730008F4F9F4F089597F99F6780E870E060E0C2
:1007400008959FEF80EC089500240A94161617066A
:1007500018060906089500240A94121613061406B2
:1007600005060895092E0394000C11F4882352F015
:10077000BB0F40F4BF2B11F460FF04C06F5F7F4FCD
:100780008F4F9F4F089557FD9058440F551F59F0B4
:100790005F3F71F04795880F97FB991F61F09F3F6E
:1007A00079F087950895121613061406551FF2CF97
:1007B0004695F1DF08C0161617061806991FF1CFE7
:1007C00086957105610508940895E894BB2766270E
:1007D0007727CB0197F908950E94FF030C94B20389
:1007E0000E94A40338F00E94AB0320F0952311F07F
:1007F0000C949B030C94A10311240C94E6030E9417
:10080000C30370F3959FC1F3950F50E0551F629F8E
:10081000F001729FBB27F00DB11D639FAA27F00D59
:10082000B11DAA1F649F6627B00DA11D661F829F80
:100830002227B00DA11D621F739FB00DA11D621F65
:10084000839FA00D611D221F749F3327A00D611D82
:10085000231F849F600D211D822F762F6A2F112464
:100860009F5750409AF0F1F088234AF0EE0FFF1F97
:10087000BB1F661F771F881F91505040A9F79E3FEE
:10088000510580F00C949B030C94E6035F3FE4F366
:10089000983ED4F3869577956795B795F795E79544
:1008A0009F5FC1F7FE2B880F911D9695879597F94D
:1008B00008950E94CB03E8F09E37E8F09639B8F42B
:1008C0009E3848F4672F782F8827985FF9CF869550
:1008D0007795679593959539D0F3B62FB1706B0FD7
:1008E000711D811D20F487957795679593950C94DC
:1008F0007D040C9498040C94E603882371F4772308
:1009000021F09850872B762F07C0662311F4992782
:100910000DC09051862B70E060E02AF09A95660F2A
:10092000771F881FDAF7880F9695879597F90895AE
:100930009F3F31F0915020F4879577956795B79553
:10094000880F911D9695879597F90895F894FFCF94
:00000001FF
