:100000000C943D000C944F000C944F000C944F0046
:100010000C944F000C944F000C944F000C944F0024
:100020000C944F000C944F000C944F000C94AD00B6
:100030000C944F000C944F000C9483000C944F00D0
:100040000C944F000C944F000C9459000C944F00EA
:100050000C944F000C944F000C944F000C944F00E4
:100060000C944F000C944F00500256025F02630242
:1000700067026B026F027302790211241FBECFEF79
:10008000D8E0DEBFCDBF25E0A0E0B1E001C01D9209
:10009000A831B207E1F70E94C9020C9488040C94BD
:1000A00000000E94D1000E9424010E94ED010C94E6
:1000B000A9011F920F920FB60F9211242F933F9315
:1000C0004F935F936F937F938F939F93AF93BF9360
:1000D000EF93FF930E946701892B21F00E943B025E
:1000E0000E946701FF91EF91BF91AF919F918F9116
:1000F0007F916F915F914F913F912F910F900FBE24
:100100000F901F9018951F920F920FB60F92112407
:100110002F933F934F935F936F937F938F939F930F
:10012000AF93BF93EF93FF938091000190910101F2
:10013000C39710F00E943B02FF91EF91BF91AF91E6
:100140009F918F917F916F915F914F913F912F91EF
:100150000F900FBE0F901F9018951F920F920FB621
:100160000F9211242F933F934F935F936F937F933D
:100170008F939F93AF93BF93EF93FF930E9482025D
:10018000FF91EF91BF91AF919F918F917F916F916F
:100190005F914F913F912F910F900FBE0F901F9045
:1001A0001895E1E6F0E080E8808382E0808308959E
:1001B000E0EBF0E08081806A808380818B608083C7
:1001C0001092B3001092B400E1EBF0E08081836004
:1001D0008083089584B5826084BD8FE087BD85B536
:1001E000836085BDEEE6F0E08081826080830895C3
:1001F000E1E8F0E0808188608083A8E8B0E08D913C
:100200009C911197816A976011969C938E9380813F
:1002100085608083EFE6F0E08081826080830895CE
:10022000E2ECF0E08081866080831092C50089E175
:100230008093C40088E98093C1000895249A2C9A81
:100240000895259A2D9808950E9410010C941E017E
:100250002C9844E84A95F1F728E030E091E0482FE7
:10026000492311F02C9A01C02C9844E84A95F1F7E3
:10027000990F2150310999F72C9A84E88A95F1F762
:10028000089530910F0520911005321306C08AEAB7
:100290000E94280181E090E00895E0910F05F0E0D0
:1002A000E15FFE4F2081FC0120838091000190914D
:1002B00001010197909301018093000180910F0546
:1002C00090E0019680930F0580E090E00895809182
:1002D000100590E0019620910F05281306C08FEFBE
:1002E0000E94280182E090E00895E0911005F0E07E
:1002F0009091C600E15FFE4F908320910001309104
:1003000001012F5F3F4F33703093010120930001B3
:100310008093100580E090E0089510920E012A98D5
:1003200028985C985A98089520E030E048EC52E410
:100330000E94DC0220E030E04AE753E40E94CE0352
:100340000E943B040E944E036093B3006093B4008C
:1003500008950E94F80084B18D6084B98AB18C61DF
:100360008AB90E948D010C94D800813029F45C98E0
:100370005A9A2A98289A09C0811105C05C9A5A98FD
:100380002A9A289802C00E948D0160E070E080EFF8
:1003900091E40C949401CF92DF92EF92FF926A0164
:1003A0007B01823029F42A9A28985C985A9A09C0CD
:1003B000833029F42A98289A5C9A5A9802C00E949D
:1003C0008D01C701B6010E94940181E080930E0166
:1003D000FF90EF90DF90CF9008950E94EA000C9478
:1003E0002101709105014091060160910801509131
:1003F000070130910A012091090190910B01809130
:100400000C01470F460F450F430F420F490F480F8E
:100410004093110580910A012091090130E0280FD5
:10042000311D3093140520931305509108018091DC
:10043000070190E0850F911D909316058093150597
:1004400050910D01451312C0253131057CF022E099
:1004500020930B01813291054CF09093030180931E
:10046000020180E2809304012D9808958FEF80931C
:1004700004012D9A089587E195E00E944101892B9E
:1004800009F03FC0E09112058E2F90E08930910570
:10049000C0F5FC01EC5CFF4F809117050C94D6026F
:1004A000893579F58093050181E020C0893521F4F3
:1004B0008093060182E01AC010921205089580937D
:1004C000070183E013C08093080184E00FC080938C
:1004D000090185E00BC080930A0186E007C0809384
:1004E0000B0187E003C080930C0188E08093120524
:1004F000089580930D010E94F1011092120510924F
:100500000D01089580910401803261F4809102010F
:10051000909103018D9730F480910E01813011F498
:100520000C948D01809104018F3F21F480910E0184
:100530008130B1F3809104018F3F39F480910E0135
:10054000811103C081E00C94B501809104018032D7
:1005500051F480910201909103018D9720F48091D4
:100560000E01882379F380910401803289F480910F
:100570000201909103018E9758F080910E01811134
:1005800007C040E050E068E472E482E00C94CB01E4
:1005900008950E9451002FEF89E698E12150804094
:1005A0009040E1F700C000007894FFCFEE0FFF1FEE
:1005B0000590F491E02D09940E94F0020C949403AC
:1005C0000E948D0358F00E94860340F029F45F3F9B
:1005D00029F00C947D0351110C94C8030C948303EF
:1005E0000E94A50368F39923B1F3552391F3951B5A
:1005F000550BBB27AA2762177307840738F09F5F44
:100600005F4F220F331F441FAA1FA9F335D00E2EB0
:100610003AF0E0E832D091505040E695001CCAF71D
:100620002BD0FE2F29D0660F771F881FBB1F2617E0
:1006300037074807AB07B0E809F0BB0B802DBF01B7
:10064000FF2793585F4F3AF09E3F510578F00C9486
:100650007D030C94C8035F3FE4F3983ED4F3869582
:1006600077956795B795F7959F5FC9F7880F911DA7
:100670009695879597F90895E1E0660F771F881F93
:10068000BB1F621773078407BA0720F0621B730B46
:10069000840BBA0BEE1F88F7E09508950E94AD0316
:1006A00088F09F5798F0B92F9927B751B0F0E1F033
:1006B000660F771F881F991F1AF0BA95C9F714C0E3
:1006C000B13091F00E94C703B1E008950C94C703C4
:1006D000672F782F8827B85F39F0B93FCCF386951C
:1006E00077956795B395D9F73EF490958095709579
:1006F00061957F4F8F4F9F4F089597F99F6780E8CF
:1007000070E060E008959FEF80EC089500240A9463
:100710001616170618060906089500240A941216DC
:100720001306140605060895092E0394000C11F40F
:10073000882352F0BB0F40F4BF2B11F460FF04C0BC
:100740006F5F7F4F8F4F9F4F089557FD9058440F15
:10075000551F59F05F3F71F04795880F97FB991F20
:1007600061F09F3F79F087950895121613061406DD
:10077000551FF2CF4695F1DF08C01616170618066A
:10078000991FF1CF86957105610508940895E89445
:10079000BB2766277727CB0197F908950E94E103CD
:1007A0000C9494030E94860338F00E948D0320F07D
:1007B000952311F00C947D030C94830311240C9465
:1007C000C8030E94A50370F3959FC1F3950F50E0F5
:1007D000551F629FF001729FBB27F00DB11D639FF3
:1007E000AA27F00DB11DAA1F649F6627B00DA11D99
:1007F000661F829F2227B00DA11D621F739FB00D3F
:10080000A11D621F839FA00D611D221F749F3327AE
:10081000A00D611D231F849F600D211D822F762F47
:100820006A2F11249F5750409AF0F1F088234AF024
:10083000EE0FFF1FBB1F661F771F881F9150504090
:10084000A9F79E3F510580F00C947D030C94C803DA
:100850005F3FE4F3983ED4F3869577956795B79517
:10086000F795E7959F5FC1F7FE2B880F911D969531
:10087000879597F908950E94AD03E8F09E37E8F058
:100880009639B8F49E3848F4672F782F8827985FF8
:10089000F9CF86957795679593959539D0F3B62FCF
:1008A000B1706B0F711D811D20F487957795679549
:1008B00093950C945F040C947A040C94C8038823D9
:1008C00071F4772321F09850872B762F07C0662389
:1008D00011F499270DC09051862B70E060E02AF04A
:1008E0009A95660F771F881FDAF7880F9695879578
:1008F00097F908959F3F31F0915020F487957795AF
:100900006795B795880F911D9695879597F90895E6
:04091000F894FFCF89
:00000001FF
