:200000000C945C000C946E000C946E000C946E000C946E000C946E000C946E000C946E0082
:200020000C946E000C946E000C946E000C946E000C946E000C946E000C946E000C946E0050
:200040000C9416010C946E000C946E000C946E000C946E000C946E000C946E000C946E0087
:200060000C946E000C946E0000000000240027002A0000000000250028002B000404040467
:200080000404040402020202020203030303030301020408102040800102040810200102F1
:2000A00004081020000000080002010000030407000000000000000011241FBECFEFD8E063
:2000C000DEBFCDBF21E0A0E0B1E001C01D92A930B207E1F70E9460010C94CF010C940000F8
:2000E000E1EBF0E09491EDE9F0E02491E9E8F0E0E491EE2309F43CC0992339F1933091F09A
:2001000038F49130A9F0923001F594B59F7D12C0973091F09830A1F09430B9F490918000B7
:200120009F7D03C0909180009F77909380000DC094B59F7794BD09C09091B0009F7703C096
:200140009091B0009F7D9093B000F0E0EE0FFF1FEE58FF4FA591B4919FB7F894811104C0AD
:200160008C912095282302C0EC912E2B2C939FBF08953FB7F8948091050190910601A0911E
:200180000701B091080126B5A89B05C02F3F19F00196A11DB11D3FBFBA2FA92F982F88275B
:2001A000820F911DA11DB11DBC01CD0142E0660F771F881F991F4A95D1F708958F929F92C7
:2001C000AF92BF92CF92DF92EF92FF920E94B9004B015C0188EEC82E83E0D82EE12CF12CA6
:2001E0000E94B900DC01CB0188199909AA09BB09883E9340A105B10598F321E0C21AD1080B
:20020000E108F10888EE880E83E0981EA11CB11CC114D104E104F10419F7FF90EF90DF903C
:20022000CF90BF90AF909F908F9008951F920F920FB60F9211242F933F938F939F93AF93CF
:20024000BF938091010190910201A0910301B09104013091000123E0230F2D3720F4019694
:20026000A11DB11D05C026E8230F0296A11DB11D209300018093010190930201A0930301A3
:20028000B09304018091050190910601A0910701B09108010196A11DB11D809305019093F5
:2002A0000601A0930701B0930801BF91AF919F918F913F912F910F900FBE0F901F901895D9
:2002C000789484B5826084BD84B5816084BD85B5826085BD85B5816085BD80916E00816040
:2002E00080936E0010928100809181008260809381008091810081608093810080918000BA
:200300008160809380008091B10084608093B1008091B00081608093B00080917A0084602B
:2003200080937A0080917A00826080937A0080917A00816080937A0080917A0080688093B7
:200340007A001092C100EDE9F0E02491E9E8F0E08491882399F090E0880F991FFC01E8597E
:20036000FF4FA591B491FC01EE58FF4F859194918FB7F894EC91E22BEC938FBFC0E0D0E06F
:2003800081E00E9470000E94DE0080E00E9470000E94DE002097A1F30E940000F1CFF8943F
:2003A000FFCFFFFFFFFFFFFFFFFFFFFFFFFFFFFFFFFFFFFFFFFFFFFFFFFFFFFFFFFFFFFF8D
:2003C000FFFFFFFFFFFFFFFFFFFFFFFFFFFFFFFFFFFFFFFFFFFFFFFFFFFFFFFFFFFFFFFF3D
:2003E000FFFFFFFFFFFFFFFFFFFFFFFFFFFFFFFFFFFFFFFFFFFFFFFFFFFFFFFFFFFFFFFF1D
:200400000895F894FFCFFFFFFFFFFFFFFFFFFFFFFFFFFFFFFFFFFFFFFFFFFFFFFFFFFFFFFF
:20042000FFFFFFFFFFFFFFFFFFFFFFFFFFFFFFFFFFFFFFFFFFFFFFFFFFFFFFFFFFFFFFFFDC
:20044000FFFFFFFFFFFFFFFFFFFFFFFFFFFFFFFFFFFFFFFFFFFFFFFFFFFFFFFFFFFFFFFFBC
:20046000FFFFFFFFFFFFFFFFFFFFFFFFFFFFFFFFFFFFFFFFFFFFFFFFFFFFFFFFFFFFFFFF9C
:20048000BB070E94BB01EC014AE050E0BC0187EB91E00E94F708CA59D041CD3DD54008F069
:2004A0007AC161E571E087EB91E00E940F0881E00E94A2048FE00E94A504BC01882777FD8B
:2004C0008095982F0E940F0B20E030E040EA50E40E94C30B20E030E040E85AE30E94C30BC1
:2004E0006B017C0168E571E087EB91E00E94E00722E030E0B701A60187EB91E00E94F80912
:2005000020E030E040E850E4C701B6010E94BF0B18160CF440C120E030E040E450E4C70125
:20052000B6010E94700A87FD36C161E082E10E94EB0461E082E10E94240561E070E080E0D8
:2005400090E00E943F0480E10E94A504BC01882777FD8095982F0E940F0B20E030E040EAE8
:2005600050E40E94C30B20E030E040E85AE30E94C30B26E636E646EB50E40E94C30B6B0189
:200580007C0160E671E087EB91E00E94E00722E030E0B701A60187EB91E00E94F80920E0E4
:2005A00030E040E251E4C701B6010E94BF0B18160CF4F1C020E030E040E051E4C701B60126
:2005C0000E94700A87FDE7C061E082E10E94EB0460E082E10E94240564E670E080E090E0C7
:2005E0000E943F0480E10E94A504BC01882777FD8095982F0E940F0B20E030E040EA50E484
:200600000E94C30B20E030E040E85AE30E94C30B26E636E646EB50E40E94C30B6B017C019F
:200620006CE671E087EB91E00E94E00722E030E0B701A60187EB91E00E94F80920E030E0A4
:2006400040EC50E4C701B6010E94BF0B18160CF4A2C020E030E040E950E4C701B6010E9431
:20066000700A87FD98C080E00E94A20465E070E080E090E00E943F0480E10E94A50465E041
:2006800070E080E090E00E943F0480E10E94A50480E10E94A504BC01882777FD8095982F41
:2006A0000E940F0B26E636E646EB50E40E94C30B20E030E040E85AE30E94C30B20E030E08C
:2006C00040E450E40E94C30B6B017C0168E771E087EB91E00E94E00722E030E0B701A601EC
:2006E00087EB91E00E94F80920E030E040EE50E4C701B6010E94BF0B18160CF44CC020E0DD
:2007000030E040E850E4C701B6010E94700A87FD42C06AE082E00E94CA008823E1F169E06E
:2007200083E00E94CA008823B1F168E084E00E94CA00882381F167E085E00E94CA008823A5
:2007400051F161E186E00E94CA00882321F163E18EE00E94CA008823F1F061E08DE00E948C
:20076000EB0466E871E087EB91E00E940F0861E08DE00E94240564E670E080E090E00E94CA
:200780003F0460E08DE0DF91CF91FF90EF90DF90CF900C942405DF91CF91FF90EF90DF90A7
:2007A000CF9008951F920F920FB60F9211242F933F938F939F93AF93BF938091AF019091F2
:2007C000B001A091B101B091B2013091AE0123E0230F2D3720F40196A11DB11D05C026E87E
:2007E000230F0296A11DB11D2093AE018093AF019093B001A093B101B093B2018091B3010A
:200800009091B401A091B501B091B6010196A11DB11D8093B3019093B401A093B501B09335
:20082000B601BF91AF919F918F913F912F910F900FBE0F901F9018953FB7F8948091B301E3
:200840009091B401A091B501B091B60126B5A89B05C02F3F19F00196A11DB11D3FBF6627DB
:20086000782F892F9A2F620F711D811D911D42E0660F771F881F991F4A95D1F70895CF92D4
:20088000DF92EF92FF92CF93DF936B017C010E941C04EB01C114D104E104F10489F00E94CB
:2008A0000A0A0E941C046C1B7D0B683E734090F381E0C81AD108E108F108C851DC4FEACF7C
:2008C000DF91CF91FF90EF90DF90CF900895789484B5826084BD84B5816084BD85B58260F0
:2008E00085BD85B5816085BDEEE6F0E0808181608083E1E8F0E010828081826080838081BE
:2009000081608083E0E8F0E0808181608083E1EBF0E0808184608083E0EBF0E08081816075
:200920008083EAE7F0E08081846080838081826080838081816080838081806880831092D2
:20094000C100089580930C0108958E3008F08E50877020910C0190E4299F90011124822B84
:2009600080937C0080917A00806480937A0080917A0086FDFCCF809178002091790090E0F0
:20098000922B0895833081F028F4813099F08230A1F008958730A9F08830B9F08430D1F479
:2009A000809180008F7D03C0809180008F7780938000089584B58F7702C084B58F7D84BD89
:2009C00008958091B0008F7703C08091B0008F7D8093B0000895CF93DF9390E0FC01E6524A
:2009E000FF4F2491FC01E251FF4F8491882349F190E0880F991FFC01EA5EFE4FA591B491B0
:200A0000845F9E4FFC01C591D4919FB7611108C0F8948C91209582238C93888182230AC024
:200A2000623051F4F8948C91322F309583238C938881822B888304C0F8948C91822B8C9351
:200A40009FBFDF91CF9108950F931F93CF93DF931F92CDB7DEB7282F30E0F901EA53FF4FED
:200A60008491F901E652FF4F1491F901E251FF4F04910023C9F0882321F069830E94C20440
:200A80006981E02FF0E0EE0FFF1FE45FFE4FA591B4919FB7F8948C91611103C010958123EA
:200AA00001C0812B8C939FBF0F90DF91CF911F910F910895CF93DF93282F30E0F901EA537E
:200AC000FF4F8491F901E652FF4FD491F901E251FF4FC491CC2391F081110E94C204EC2F79
:200AE000F0E0EE0FFF1FEE5FFE4FA591B4912C912D2381E090E021F480E002C080E090E011
:200B0000DF91CF910895FC01818D228D90E0805C9F4F821B91098F7399270895FC01918DC3
:200B2000828D981731F0828DE80FF11D858D90E008958FEF9FEF0895FC01918D828D981721
:200B400061F0828DDF01A80FB11D5D968C91928D9F5F9F73928F90E008958FEF9FEF0895BA
:200B600080E297E0892B49F080E090E0892B29F00E94200781110C9400000895FC01848D6C
:200B8000DF01A80FB11DA35ABF4F2C91848D90E001968F739927848FA689B7892C93A089E4
:200BA000B1898C9180648C93938D848D981306C00288F389E02D80818F7D80830895CF9317
:200BC000DF93EC01888D8823C9F0EA89FB89808185FD05C0A889B9898C9186FD0FC00FB657
:200BE00007FCF5CF808185FFF2CFA889B9898C9185FFEDCFCE010E94BE05E7CFDF91CF915E
:200C00000895CF92DF92FF920F931F93CF93DF931F92CDB7DEB76C01DC015B969C915B9788
:200C20005C968C915C97981307C05096ED91FC915197808185FD32C0F601038D10E00F5F0D
:200C40001F4F0F731127F02EF601848DF81211C00FB607FCF9CFD6015096ED91FC9151972B
:200C6000808185FFF1CFC60169830E94BE056981EBCF838DE80FF11DE35AFF4F6083D60119
:200C80005B960C935B975296ED91FC91539780818062808381E058968C930DC0D601569611
:200CA000ED91FC91579760835096ED91FC91519780818064808381E090E00F90DF91CF9157
:200CC0001F910F91FF90DF90CF900895BF92CF92DF92EF92FF92CF93DF93EC016A017B01ED
:200CE000B22EE889F98982E08083411581EE580761057105A1F060E079E08DE390E0A7010A
:200D000096010E942A0C21503109410951095695479537952795211580E1380798F0E889F7
:200D2000F989108260E874E88EE190E0A70196010E942A0C215031094109510956954795EF
:200D400037952795EC85FD853083EE85FF852083188EEC89FD89B082EA89FB89808180611F
:200D60008083EA89FB89808188608083EA89FB89808180688083EA89FB8980818F7D8083A3
:200D8000DF91CF91FF90EF90DF90CF90BF9008951F920F920FB60F9211242F938F939F93B8
:200DA000EF93FF93E091C701F091C8018081E091CD01F091CE0182FD12C090818091D001C8
:200DC0008F5F8F732091D101821751F0E091D001F0E0E954FE4F958F8093D00101C0808160
:200DE000FF91EF919F918F912F910F900FBE0F901F9018951F920F920FB60F9211242F93BD
:200E00003F934F935F936F937F938F939F93AF93BF93EF93FF9387EB91E00E94BE05FF9144
:200E2000EF91BF91AF919F918F917F916F915F914F913F912F910F900FBE0F901F9018957B
:200E400087EB91E00E94830521E0892B09F420E0822F08951092BA011092B90188EE93E0E3
:200E6000A0E0B0E08093BB019093BC01A093BD01B093BE0183E991E09093B8018093B7013C
:200E800085EC90E09093C4018093C30184EC90E09093C6018093C50180EC90E09093C80147
:200EA0008093C70181EC90E09093CA018093C90182EC90E09093CC018093CB0186EC90E020
:200EC0009093CE018093CD011092D0011092D1011092D2011092D301089508950E94670426
:200EE0000E946D070E94BB00C0EBD5E00E940D022097E1F30E94B005F9CFCF92DF92EF9271
:200F0000FF920F931F93CF93DF936C017A01EB01E60EF71E00E010E0CE15DF0561F0699159
:200F2000D601ED91FC910190F081E02DC6010995080F191FF1CFC801DF91CF911F910F9163
:200F4000FF90EF90DF90CF9008956115710581F0DB010D900020E9F7AD0141505109461B48
:200F6000570BDC01ED91FC910280F381E02D099480E090E00895EF92FF920F931F93CF9352
:200F8000DF938C01FB01C0E0D0E064917F018FEFE81AF80A662361F0D801ED91FC910190C0
:200FA000F081E02DC8010995C80FD91FF701EDCFCE01DF91CF911F910F91FF90EF9008952F
:200FC0000C94A507DC01ED91FC910190F081E02D09940F931F93CF93DF93EC016DE00E942D
:200FE000E2078C016AE0CE010E94E207800F911FDF91CF911F910F9108950F931F93CF9325
:20100000DF93EC010E94BB078C01CE010E94E907800F911FDF91CF911F910F9108950F9381
:201020001F93CF93DF93EC010E94A5078C01CE010E94E907800F911FDF91CF911F910F91A2
:2010400008958F929F92AF92BF92CF92DF92EF92FF920F931F93CF93DF93CDB7DEB7A197B2
:201060000FB6F894DEBF0FBECDBF7C01C42EE52FCB01D22E19A221E02D1510F02AE0D22ED2
:201080008E010F5D1F4F8D2C912CA12CB12C6C2D7E2FA50194010E942A0C8C2DD29E8019AC
:2010A0001124015011098A3014F4805D01C0895CF8018083211531054105510521F0C22E46
:2010C000E32FCA01E4CFB801C7010E94A507A1960FB6F894DEBF0FBECDBFDF91CF911F91B3
:2010E0000F91FF90EF90DF90CF90BF90AF909F908F900895CF92DF92EF92FF920F931F93C3
:20110000CF93DF93EC016A017B012115310579F4E881F9810190F081E02D642FDF91CF91F9
:201120001F910F91FF90EF90DF90CF9009942A303105E9F477FF1AC06DE20E94E2078C01C2
:2011400044275527BA014C195D096E097F092AE0CE010E942108800F911FDF91CF911F91C0
:201160000F91FF90EF90DF90CF9008952AE0B701A601CE01DF91CF911F910F91FF90EF90F0
:20118000DF90CF900C9421089A01AB01662757FD6095762F0C947A082115310541F4DC0156
:2011A000ED91FC910190F081E02D642F09940C9421089A01462F50E060E070E00C94CC08D8
:2011C0000F931F93CF93DF93EC019A01462F50E060E070E00E94CC088C01CE010E94E907C6
:2011E000800F911FDF91CF911F910F9108950F931F93CF93DF93EC019A01AB0160E070E007
:201200000E94CC088C01CE010E94E907800F911FDF91CF911F910F9108954F925F926F929B
:201220007F928F929F92AF92BF92CF92DF92EF92FF920F931F93CF93DF93EC016A017B01D9
:20124000B22E9A01AB01C701B6010E94260C882319F06FE971E027C026013701E89477F886
:201260002FEF3FEF4FE75FE7C301B2010E94260C81110DC02FEF3FEF4FE75FE7C301B201BD
:201280000E94700A18161CF463EA71E00CC02FEF3FEF4FE75FE4C701B6010E94BF0B1816AC
:2012A000ACF467EA71E0CE01DF91CF911F910F91FF90EF90DF90CF90BF90AF909F908F9045
:2012C0007F906F905F904F900C94A5072FEF3FEF4FE75FECC701B6010E94700A87FDE1CF4A
:2012E00020E030E0A901C701B6010E94700A87FF0AC06DE2CE010E94E2078C01F7FAF0949E
:20130000F7F8F09402C000E010E0A12C60E070E080E09FE3AB1441F020E030E040E251E432
:201320000E94740AA394F6CF9B01AC01C701B6010E940C0A6B017C010E94E10A2B013C0132
:201340000E940D0B9B01AC01C701B6010E940B0A6B017C012AE0B301A201CE010E94210870
:20136000080F191FBB2039F06BEA71E0CE010E94A507080F191F7B2C772041F120E030E088
:2013800040E251E4C701B6010E94C30B6B017C010E94DC0A4B01AA2497FCA094BA2C2AE0C5
:2013A00030E0B501A401CE010E947A08080F191FC501B4010E940F0B9B01AC01C701B60181
:2013C0000E940B0A6B017C017A94D6CFC801DF91CF911F910F91FF90EF90DF90CF90BF90A6
:2013E000AF909F908F907F906F905F904F9008950F931F93CF93DF93EC010E940D098C018D
:20140000CE010E94E907800F911FDF91CF911F910F91089508955058BB27AA270ED075C163
:2014200066D130F06BD120F031F49F3F11F41EF45BC10EF4E095E7FB51C1E92F77D180F395
:20144000BA17620773078407950718F071F49EF58FC10EF4E0950B2EBA2FA02D0B01B90135
:2014600090010C01CA01A0011124FF27591B99F0593F50F4503E68F11A16F040A22F232FC4
:20148000342F4427585FF3CF469537952795A795F0405395C9F77EF41F16BA0B620B730B37
:2014A000840BBAF09150A1F0FF0FBB1F661F771F881FC2F70EC0BA0F621F731F841F48F495
:2014C000879577956795B795F7959E3F08F0B3CF9395880F08F09927EE0F97958795089560
:2014E000D9D008F481E008950CD00FC107D140F0FED030F021F45F3F19F0F0C0511139C1DF
:20150000F3C014D198F39923C9F35523B1F3951B550BBB27AA2762177307840738F09F5FAD
:201520005F4F220F331F441FAA1FA9F333D00E2E3AF0E0E830D091505040E695001CCAF7B8
:2015400029D0FE2F27D0660F771F881FBB1F261737074807AB07B0E809F0BB0B802DBF01A2
:20156000FF2793585F4F2AF09E3F510568F0B6C000C15F3FECF3983EDCF38695779567958B
:20158000B795F7959F5FC9F7880F911D9695879597F90895E1E0660F771F881FBB1F621736
:2015A00073078407BA0720F0621B730B840BBA0BEE1F88F7E095089504D06894B111D9C03D
:2015C0000895BCD088F09F5790F0B92F9927B751A0F0D1F0660F771F881F991F1AF0BA9530
:2015E000C9F712C0B13081F0C3D0B1E00895C0C0672F782F8827B85F39F0B93FCCF38695C8
:2016000077956795B395D9F73EF490958095709561957F4F8F4F9F4F0895E89409C097FB35
:201620003EF490958095709561957F4F8F4F9F4F9923A9F0F92F96E9BB279395F6958795FC
:2016400077956795B795F111F8CFFAF4BB0F11F460FF1BC06F5F7F4F8F4F9F4F16C088238D
:2016600011F096E911C0772321F09EE8872F762F05C0662371F096E8862F70E060E02AF001
:201680009A95660F771F881FDAF7880F9695879597F90895990F0008550FAA0BE0E8FEEF0F
:2016A00016161706E807F907C0F012161306E407F50798F0621B730B840B950B39F40A260B
:2016C00061F0232B242B252B21F408950A2609F4A140A6958FEF811D811D089597F99F67E4
:2016E00080E870E060E008959FEF80EC089500240A941616170618060906089500240A9427
:2017000012161306140605060895092E0394000C11F4882352F0BB0F40F4BF2B11F460FFAE
:2017200004C06F5F7F4F8F4F9F4F089557FD9058440F551F59F05F3F71F04795880F97FB90
:20174000991F61F09F3F79F087950895121613061406551FF2CF4695F1DF08C01616170634
:201760001806991FF1CF86957105610508940895E894BB2766277727CB0197F908958ADFB8
:2017800008F48FEF08950BD0C0CFB1DF28F0B6DF18F0952309F0A2CFA7CF1124EACFC6DF58
:2017A000A0F3959FD1F3950F50E0551F629FF001729FBB27F00DB11D639FAA27F00DB11D08
:2017C000AA1F649F6627B00DA11D661F829F2227B00DA11D621F739FB00DA11D621F839F1A
:2017E000A00D611D221F749F3327A00D611D231F849F600D211D822F762F6A2F11249F57BB
:2018000050408AF0E1F088234AF0EE0FFF1FBB1F661F771F881F91505040A9F79E3F51050D
:2018200070F05CCFA6CF5F3FECF3983EDCF3869577956795B795F795E7959F5FC1F7FE2B30
:20184000880F911D9695879597F9089523DF880B990B0895A1E21A2EAA1BBB1BFD010DC0C8
:20186000AA1FBB1FEE1FFF1FA217B307E407F50720F0A21BB30BE40BF50B661F771F881F04
:20188000991F1A9469F760957095809590959B01AC01BD01CF010895EE0FFF1F0590F491A5
:2018A000E02D0994F894FFCF02030405060708090A0E1113010954657374696E6720002094
:2018C00026200047726F756E6420746573742031206661696C003D3D3D3D3D3D3D4A756E8E
:2018E00020313120323031352031333A35303A34363D3D3D3D3D3D3D00566363204F4B0036
:2019000056332E33203D200056696E2028395629203D200056696E2028355629203D200010
:201920004152454627642056696E203D200054455354204F4B21000000000001067D07830B
:20194000059C058E05DF056E616E00696E66006F7666002E0000FFFFFFFFFFFFFFFFFFFF81
:20196000FFFFFFFFFFFFFFFFFFFFFFFFFFFFFFFFFFFFFFFFFFFFFFFFFFFFFFFFFFFFFFFF87
:20198000FFFFFFFFFFFFFFFFFFFFFFFFFFFFFFFFFFFFFFFFFFFFFFFFFFFFFFFFFFFFFFFF67
:2019A000FFFFFFFFFFFFFFFFFFFFFFFFFFFFFFFFFFFFFFFFFFFFFFFFFFFFFFFFFFFFFFFF47
:2019C000FFFFFFFFFFFFFFFFFFFFFFFFFFFFFFFFFFFFFFFFFFFFFFFFFFFFFFFFFFFFFFFF27
:207E0000112484B714BE81FFF0D085E08093810082E08093C00088E18093C10086E08093FC
:207E2000C20080E18093C4008EE0C9D0259A86E020E33CEF91E0309385002093840096BBAD
:207E4000B09BFECF1D9AA8958150A9F7CC24DD2488248394B5E0AB2EA1E19A2EF3E0BF2E79
:207E6000A2D0813461F49FD0082FAFD0023811F0013811F484E001C083E08DD089C0823404
:207E800011F484E103C0853419F485E0A6D080C0853579F488D0E82EFF2485D0082F10E0A0
:207EA000102F00270E291F29000F111F8ED068016FC0863521F484E090D080E0DECF84364D
:207EC00009F040C070D06FD0082F6DD080E0C81680E7D80618F4F601B7BEE895C0E0D1E0ED
:207EE00062D089930C17E1F7F0E0CF16F0E7DF0618F0F601B7BEE89568D007B600FCFDCF1A
:207F0000A601A0E0B1E02C9130E011968C91119790E0982F8827822B932B1296FA010C016F
:207F200087BEE89511244E5F5F4FF1E0A038BF0751F7F601A7BEE89507B600FCFDCF97BE85
:207F4000E89526C08437B1F42ED02DD0F82E2BD03CD0F601EF2C8F010F5F1F4F84911BD0B8
:207F6000EA94F801C1F70894C11CD11CFA94CF0CD11C0EC0853739F428D08EE10CD085E9AE
:207F80000AD08FE07ACF813511F488E018D01DD080E101D065CF982F8091C00085FFFCCF0A
:207FA0009093C60008958091C00087FFFCCF8091C00084FD01C0A8958091C6000895E0E68F
:207FC000F0E098E1908380830895EDDF803219F088E0F5DFFFCF84E1DECF1F93182FE3DF47
:207FE0001150E9F7F2DF1F91089580E0E8DFEE27FF270994FFFFFFFFFFFFFFFFFFFF040425
:00000001FF
